{
  "address": "0xC3Ff2494f18F629Df7d781968Feb5215A3ced24D",
  "abi": [
    {
      "inputs": [
        {
          "internalType": "address",
          "name": "exampleExternalContractAddress",
          "type": "address"
        }
      ],
      "stateMutability": "nonpayable",
      "type": "constructor"
    },
    {
      "anonymous": false,
      "inputs": [
        {
          "indexed": true,
          "internalType": "address",
          "name": "staker",
          "type": "address"
        },
        {
          "indexed": false,
          "internalType": "uint256",
          "name": "amount",
          "type": "uint256"
        }
      ],
      "name": "Staked",
      "type": "event"
    },
    {
      "anonymous": false,
      "inputs": [
        {
          "indexed": false,
          "internalType": "uint256",
          "name": "totalStaked",
          "type": "uint256"
        }
      ],
      "name": "StakingCompleted",
      "type": "event"
    },
    {
      "anonymous": false,
      "inputs": [
        {
          "indexed": true,
          "internalType": "address",
          "name": "withdrawer",
          "type": "address"
        },
        {
          "indexed": false,
          "internalType": "uint256",
          "name": "amount",
          "type": "uint256"
        }
      ],
      "name": "Withdrawn",
      "type": "event"
    },
    {
      "inputs": [
        {
          "internalType": "address",
          "name": "",
          "type": "address"
        }
      ],
      "name": "balances",
      "outputs": [
        {
          "internalType": "uint256",
          "name": "",
          "type": "uint256"
        }
      ],
      "stateMutability": "view",
      "type": "function"
    },
    {
      "inputs": [],
      "name": "deadline",
      "outputs": [
        {
          "internalType": "uint256",
          "name": "",
          "type": "uint256"
        }
      ],
      "stateMutability": "view",
      "type": "function"
    },
    {
      "inputs": [],
      "name": "exampleExternalContract",
      "outputs": [
        {
          "internalType": "contract ExampleExternalContract",
          "name": "",
          "type": "address"
        }
      ],
      "stateMutability": "view",
      "type": "function"
    },
    {
      "inputs": [],
      "name": "executeStaking",
      "outputs": [],
      "stateMutability": "nonpayable",
      "type": "function"
    },
    {
      "inputs": [],
      "name": "getBalance",
      "outputs": [
        {
          "internalType": "uint256",
          "name": "",
          "type": "uint256"
        }
      ],
      "stateMutability": "view",
      "type": "function"
    },
    {
      "inputs": [],
      "name": "openForWithdraw",
      "outputs": [
        {
          "internalType": "bool",
          "name": "",
          "type": "bool"
        }
      ],
      "stateMutability": "view",
      "type": "function"
    },
    {
      "inputs": [],
      "name": "stake",
      "outputs": [],
      "stateMutability": "payable",
      "type": "function"
    },
    {
      "inputs": [],
      "name": "threshold",
      "outputs": [
        {
          "internalType": "uint256",
          "name": "",
          "type": "uint256"
        }
      ],
      "stateMutability": "view",
      "type": "function"
    },
    {
      "inputs": [],
      "name": "timeLeft",
      "outputs": [
        {
          "internalType": "uint256",
          "name": "",
          "type": "uint256"
        }
      ],
      "stateMutability": "view",
      "type": "function"
    },
    {
      "inputs": [],
      "name": "withdraw",
      "outputs": [],
      "stateMutability": "nonpayable",
      "type": "function"
    },
    {
      "stateMutability": "payable",
      "type": "receive"
    }
  ],
  "transactionHash": "0xc610d5712945ed46c562516efe20be05b78b5af4908f5130f1eeeead35a64ced",
  "args": [
    "0xb35885C275dbdF2f11711845eB4e3083D3BEDcB8"
  ],
  "numDeployments": 1,
  "solcInputHash": "ba6cff5a790cf6a235f9ca9316e7fdbc",
  "bytecode": "0x608060405234801561001057600080fd5b5060405161070c38038061070c83398101604081905261002f91610060565b600080546001600160a01b0319166001600160a01b038316179055610057426203f48061008e565b600255506100b2565b600060208284031215610071578081fd5b81516001600160a01b0381168114610087578182fd5b9392505050565b600082198211156100ad57634e487b7160e01b81526011600452602481fd5b500190565b61064b806100c16000396000f3fe6080604052600436106100955760003560e01c80633ccfd60b116100595780633ccfd60b1461013a57806342cde4e81461014f5780637e27f09e1461016b5780639876a643146101805780639f75f227146101aa57600080fd5b806312065fe0146100a95780631300a6d1146100da57806327e235e3146100ef57806329dcb0cf1461011c5780633a4b66f11461013257600080fd5b366100a4576100a26101e2565b005b600080fd5b3480156100b557600080fd5b50336000908152600160205260409020545b6040519081526020015b60405180910390f35b3480156100e657600080fd5b506100c7610293565b3480156100fb57600080fd5b506100c761010a3660046105a2565b60016020526000908152604090205481565b34801561012857600080fd5b506100c760025481565b6100a26101e2565b34801561014657600080fd5b506100a26102b7565b34801561015b57600080fd5b506100c7670de0b6b3a764000081565b34801561017757600080fd5b506100a261043b565b34801561018c57600080fd5b5060035461019a9060ff1681565b60405190151581526020016100d1565b3480156101b657600080fd5b506000546101ca906001600160a01b031681565b6040516001600160a01b0390911681526020016100d1565b60025442106102385760405162461bcd60e51b815260206004820152601860248201527f5374616b696e6720706572696f642068617320656e646564000000000000000060448201526064015b60405180910390fd5b33600090815260016020526040812080543492906102579084906105d0565b909155505060405134815233907f9e71bc8eea02a63969f509818f2dafb9254532904319f9dbda79b67bd34a5f3d9060200160405180910390a2565b600060025442106102a45750600090565b426002546102b291906105e8565b905090565b60035460ff166103095760405162461bcd60e51b815260206004820152601f60248201527f5769746864726177616c206973206e6f7420617661696c61626c652079657400604482015260640161022f565b336000908152600160205260409020546103655760405162461bcd60e51b815260206004820152601760248201527f4e6f2062616c616e63657320746f207769746864726177000000000000000000604482015260640161022f565b33600081815260016020526040808220805490839055905190929083908381818185875af1925050503d80600081146103ba576040519150601f19603f3d011682016040523d82523d6000602084013e6103bf565b606091505b50509050806104025760405162461bcd60e51b815260206004820152600f60248201526e15da5d1a191c985dd85b0819985a5b608a1b604482015260640161022f565b60405182815233907f7084f5476618d8e60b11ef0d7d3f06914655adb8793e28ff7f018d4c76d505d59060200160405180910390a25050565b6002544210156104855760405162461bcd60e51b815260206004820152601560248201527414dd185ada5b99c81a185cc81b9bdd08195b991959605a1b604482015260640161022f565b60035460ff16156104e25760405162461bcd60e51b815260206004820152602160248201527f5374616b696e672068617320616c7265616479206265656e20657865637574656044820152601960fa1b606482015260840161022f565b670de0b6b3a764000047106105935760008054906101000a90046001600160a01b03166001600160a01b031663522e1177476040518263ffffffff1660e01b81526004016000604051808303818588803b15801561053f57600080fd5b505af1158015610553573d6000803e3d6000fd5b50505050507f20c2ec7b8a9676c715986ce2068de00d5acf2628559326492fc25462641576ae4760405161058991815260200190565b60405180910390a1565b6003805460ff19166001179055565b6000602082840312156105b3578081fd5b81356001600160a01b03811681146105c9578182fd5b9392505050565b600082198211156105e3576105e36105ff565b500190565b6000828210156105fa576105fa6105ff565b500390565b634e487b7160e01b600052601160045260246000fdfea2646970667358221220d74789eec602f7cf4ee86ae5c7d6bf3488f9debbfe560b9ec8b4168feba7ddd764736f6c63430008040033",
  "devdoc": {
    "kind": "dev",
    "methods": {},
    "version": 1
  },
  "userdoc": {
    "kind": "user",
    "methods": {},
    "version": 1
  },
  "storageLayout": {
    "storage": [
      {
        "astId": 19,
        "contract": "contracts/Staker.sol:Staker",
        "label": "exampleExternalContract",
        "offset": 0,
        "slot": "0",
        "type": "t_contract(ExampleExternalContract)12"
      },
      {
        "astId": 23,
        "contract": "contracts/Staker.sol:Staker",
        "label": "balances",
        "offset": 0,
        "slot": "1",
        "type": "t_mapping(t_address,t_uint256)"
      },
      {
        "astId": 28,
        "contract": "contracts/Staker.sol:Staker",
        "label": "deadline",
        "offset": 0,
        "slot": "2",
        "type": "t_uint256"
      },
      {
        "astId": 30,
        "contract": "contracts/Staker.sol:Staker",
        "label": "openForWithdraw",
        "offset": 0,
        "slot": "3",
        "type": "t_bool"
      }
    ],
    "types": {
      "t_address": {
        "encoding": "inplace",
        "label": "address",
        "numberOfBytes": "20"
      },
      "t_bool": {
        "encoding": "inplace",
        "label": "bool",
        "numberOfBytes": "1"
      },
      "t_contract(ExampleExternalContract)12": {
        "encoding": "inplace",
        "label": "contract ExampleExternalContract",
        "numberOfBytes": "20"
      },
      "t_mapping(t_address,t_uint256)": {
        "encoding": "mapping",
        "key": "t_address",
        "label": "mapping(address => uint256)",
        "numberOfBytes": "32",
        "value": "t_uint256"
      },
      "t_uint256": {
        "encoding": "inplace",
        "label": "uint256",
        "numberOfBytes": "32"
      }
    }
  }
}